{
  "contractName": "Voting",
  "abi": [
    {
      "inputs": [
        {
          "internalType": "string[]",
          "name": "candidateNames",
          "type": "string[]"
        }
      ],
      "stateMutability": "nonpayable",
      "type": "constructor"
    },
    {
      "inputs": [
        {
          "internalType": "uint256",
          "name": "",
          "type": "uint256"
        }
      ],
      "name": "candidateList",
      "outputs": [
        {
          "internalType": "string",
          "name": "",
          "type": "string"
        }
      ],
      "stateMutability": "view",
      "type": "function",
      "constant": true
    },
    {
      "inputs": [
        {
          "internalType": "string",
          "name": "",
          "type": "string"
        }
      ],
      "name": "votesReceived",
      "outputs": [
        {
          "internalType": "uint256",
          "name": "",
          "type": "uint256"
        }
      ],
      "stateMutability": "view",
      "type": "function",
      "constant": true
    },
    {
      "inputs": [
        {
          "internalType": "string",
          "name": "candidate",
          "type": "string"
        }
      ],
      "name": "voteForCandidate",
      "outputs": [],
      "stateMutability": "nonpayable",
      "type": "function"
    },
    {
      "inputs": [
        {
          "internalType": "string",
          "name": "candidate",
          "type": "string"
        }
      ],
      "name": "totalVotesFor",
      "outputs": [
        {
          "internalType": "uint256",
          "name": "",
          "type": "uint256"
        }
      ],
      "stateMutability": "view",
      "type": "function",
      "constant": true
    }
  ],
  "bytecode": "0x60806040523480156200001157600080fd5b50604051620009d8380380620009d8833981016040819052620000349162000171565b80516200004990600190602084019062000051565b505062000410565b8280548282559060005260206000209081019282156200009c579160200282015b828111156200009c57825182906200008b908262000344565b509160200191906001019062000072565b50620000aa929150620000ae565b5090565b80821115620000aa576000620000c58282620000cf565b50600101620000ae565b508054620000dd90620002b5565b6000825580601f10620000ee575050565b601f0160209004906000526020600020908101906200010e919062000111565b50565b5b80821115620000aa576000815560010162000112565b634e487b7160e01b600052604160045260246000fd5b604051601f8201601f191681016001600160401b038111828210171562000169576200016962000128565b604052919050565b600060208083850312156200018557600080fd5b82516001600160401b03808211156200019d57600080fd5b8185019150601f8681840112620001b357600080fd5b825182811115620001c857620001c862000128565b8060051b620001d98682016200013e565b918252848101860191868101908a841115620001f457600080fd5b87870192505b83831015620002a757825186811115620002145760008081fd5b8701603f81018c13620002275760008081fd5b88810151878111156200023e576200023e62000128565b62000251818801601f19168b016200013e565b81815260408e81848601011115620002695760008081fd5b60005b8381101562000289578481018201518382018e01528c016200026c565b505060009181018b01919091528352509187019190870190620001fa565b9a9950505050505050505050565b600181811c90821680620002ca57607f821691505b602082108103620002eb57634e487b7160e01b600052602260045260246000fd5b50919050565b601f8211156200033f57600081815260208120601f850160051c810160208610156200031a5750805b601f850160051c820191505b818110156200033b5782815560010162000326565b5050505b505050565b81516001600160401b0381111562000360576200036062000128565b6200037881620003718454620002b5565b84620002f1565b602080601f831160018114620003b05760008415620003975750858301515b600019600386901b1c1916600185901b1785556200033b565b600085815260208120601f198616915b82811015620003e157888601518255948401946001909101908401620003c0565b5085821015620004005787850151600019600388901b60f8161c191681555b5050505050600190811b01905550565b6105b880620004206000396000f3fe608060405234801561001057600080fd5b506004361061004c5760003560e01c80634a3bf377146100515780638d4b44d914610077578063b13c744b146100a2578063e89927ef146100c2575b600080fd5b61006461005f36600461030e565b6100d7565b6040519081526020015b60405180910390f35b61006461008536600461030e565b805160208183018101805160008252928201919093012091525481565b6100b56100b03660046103bf565b610154565b60405161006e91906103fc565b6100d56100d036600461030e565b610200565b005b60006100e282610287565b61012e5760405162461bcd60e51b815260206004820152601860248201527710d85b991a59185d1948191bd95cc81b9bdd08195e1a5cdd60421b60448201526064015b60405180910390fd5b60008260405161013e919061042f565b9081526020016040518091039020549050919050565b6001818154811061016457600080fd5b90600052602060002001600091509050805461017f9061044b565b80601f01602080910402602001604051908101604052809291908181526020018280546101ab9061044b565b80156101f85780601f106101cd576101008083540402835291602001916101f8565b820191906000526020600020905b8154815290600101906020018083116101db57829003601f168201915b505050505081565b61020981610287565b6102505760405162461bcd60e51b815260206004820152601860248201527710d85b991a59185d1948191bd95cc81b9bdd08195e1a5cdd60421b6044820152606401610125565b6001600082604051610262919061042f565b9081526020016040518091039020600082825461027f919061049b565b909155505050565b6000805b6001548110156102ef578280519060200120600182815481106102b0576102b06104b4565b906000526020600020016040516102c791906104ca565b6040518091039020036102dd5750600192915050565b806102e781610569565b91505061028b565b50600092915050565b634e487b7160e01b600052604160045260246000fd5b60006020828403121561032057600080fd5b813567ffffffffffffffff8082111561033857600080fd5b818401915084601f83011261034c57600080fd5b81358181111561035e5761035e6102f8565b604051601f8201601f19908116603f01168101908382118183101715610386576103866102f8565b8160405282815287602084870101111561039f57600080fd5b826020860160208301376000928101602001929092525095945050505050565b6000602082840312156103d157600080fd5b5035919050565b60005b838110156103f35781810151838201526020016103db565b50506000910152565b602081526000825180602084015261041b8160408501602087016103d8565b601f01601f19169190910160400192915050565b600082516104418184602087016103d8565b9190910192915050565b600181811c9082168061045f57607f821691505b60208210810361047f57634e487b7160e01b600052602260045260246000fd5b50919050565b634e487b7160e01b600052601160045260246000fd5b808201808211156104ae576104ae610485565b92915050565b634e487b7160e01b600052603260045260246000fd5b600080835481600182811c9150808316806104e657607f831692505b6020808410820361050557634e487b7160e01b86526022600452602486fd5b818015610519576001811461052e5761055b565b60ff198616895284151585028901965061055b565b60008a81526020902060005b868110156105535781548b82015290850190830161053a565b505084890196505b509498975050505050505050565b60006001820161057b5761057b610485565b506001019056fea2646970667358221220e6b0e6eaa14b63080b3f3011b5fa7b3e489d07ebe05e5b9dff4e1009c3be0c7664736f6c63430008130033",
  "immutableReferences": {},
  "source": "// contracts/Voting.sol\r\n// SPDX-License-Identifier: MIT\r\npragma solidity ^0.8.0;\r\n\r\n\r\ncontract Voting {\r\n    mapping(string => uint256) public votesReceived;\r\n    string[] public candidateList;\r\n\r\n    constructor(string[] memory candidateNames){\r\n        candidateList = candidateNames;\r\n    }\r\n\r\n    function voteForCandidate(string memory candidate) public {\r\n        require(candidateExists(candidate), \"Candidate does not exist\");\r\n        votesReceived[candidate] += 1;\r\n    }\r\n\r\n    function totalVotesFor(string memory candidate) public view returns (uint256) {\r\n        require(candidateExists(candidate), \"Candidate does not exist\");\r\n        return votesReceived[candidate];\r\n    }\r\n\r\n    function candidateExists(string memory candidate) view internal returns (bool) {\r\n        for (uint i = 0; i < candidateList.length; i++) {\r\n            if (keccak256(bytes(candidateList[i])) == keccak256(bytes(candidate))) {\r\n                return true;\r\n            }\r\n        }\r\n        return false;\r\n    }\r\n}\r\n",
  "sourcePath": "C:\\Users\\Saanvi\\Desktop\\Sem-6\\SE\\project\\E-voting-using-blockchain\\contracts\\Voting.sol",
  "compiler": {
    "name": "solc",
    "version": "0.8.19+commit.7dd6d404.Emscripten.clang"
  },
  "schemaVersion": "3.4.16",
  "updatedAt": "2025-03-16T04:29:25.750Z",
  "networkType": "ethereum",
  "devdoc": {
    "kind": "dev",
    "methods": {},
    "version": 1
  },
  "userdoc": {
    "kind": "user",
    "methods": {},
    "version": 1
  }
}