{
    "contractName": "Voting",
    "abi": [
        {
            "constant": true,
            "inputs": [
                {
                    "name": "",
                    "type": "bytes32"
                }
            ],
            "name": "voterWallets",
            "outputs": [
                {
                    "name": "",
                    "type": "address"
                }
            ],
            "payable": false,
            "stateMutability": "view",
            "type": "function",
            "signature": "0x1998ff9c"
        },
        {
            "constant": false,
            "inputs": [
                {
                    "name": "aadharId",
                    "type": "string"
                },
                {
                    "name": "walletAddress",
                    "type": "address"
                }
            ],
            "name": "registerVoter",
            "outputs": [],
            "payable": false,
            "stateMutability": "nonpayable",
            "type": "function",
            "signature": "0x4a075de2"
        },
        {
            "constant": true,
            "inputs": [
                {
                    "name": "aadharId",
                    "type": "string"
                }
            ],
            "name": "getVoterWallet",
            "outputs": [
                {
                    "name": "",
                    "type": "address"
                }
            ],
            "payable": false,
            "stateMutability": "view",
            "type": "function",
            "signature": "0x157bb4c6"
        }
    ],
    "bytecode": "0x608060405234801561001057600080fd5b5061057e806100206000396000f3fe608060405260043610610057576000357c0100000000000000000000000000000000000000000000000000000000900463ffffffff168063157bb4c61461005c5780631998ff9c146101645780634a075de2146101df575b600080fd5b34801561006857600080fd5b506101226004803603602081101561007f57600080fd5b810190808035906020019064010000000081111561009c57600080fd5b8201836020820111156100ae57600080fd5b803590602001918460018302840111640100000000831117156100d057600080fd5b91908080601f016020809104026020016040519081016040528093929190818152602001838380828437600081840152601f19601f8201169050808301925050505050505091929192905050506102c7565b604051808273ffffffffffffffffffffffffffffffffffffffff1673ffffffffffffffffffffffffffffffffffffffff16815260200191505060405180910390f35b34801561017057600080fd5b5061019d6004803603602081101561018757600080fd5b810190808035906020019092919050505061037b565b604051808273ffffffffffffffffffffffffffffffffffffffff1673ffffffffffffffffffffffffffffffffffffffff16815260200191505060405180910390f35b3480156101eb57600080fd5b506102c56004803603604081101561020257600080fd5b810190808035906020019064010000000081111561021f57600080fd5b82018360208201111561023157600080fd5b8035906020019184600183028401116401000000008311171561025357600080fd5b91908080601f016020809104026020016040519081016040528093929190818152602001838380828437600081840152601f19601f820116905080830192505050505050509192919290803573ffffffffffffffffffffffffffffffffffffffff1690602001909291905050506103ae565b005b600080826040516020018082805190602001908083835b60208310151561030357805182526020820191506020810190506020830392506102de565b6001836020036101000a03801982511681845116808217855250505050505090500191505060405160208183030381529060405280519060200120905060008082815260200190815260200160002060009054906101000a900473ffffffffffffffffffffffffffffffffffffffff16915050919050565b60006020528060005260406000206000915054906101000a900473ffffffffffffffffffffffffffffffffffffffff1681565b6000826040516020018082805190602001908083835b6020831015156103e957805182526020820191506020810190506020830392506103c4565b6001836020036101000a038019825116818451168082178552505050505050905001915050604051602081830303815290604052805190602001209050600073ffffffffffffffffffffffffffffffffffffffff1660008083815260200190815260200160002060009054906101000a900473ffffffffffffffffffffffffffffffffffffffff1673ffffffffffffffffffffffffffffffffffffffff161415156104fc576040517f08c379a00000000000000000000000000000000000000000000000000000000081526004018080602001828103825260188152602001807f566f74657220616c72656164792072656769737465726564000000000000000081525060200191505060405180910390fd5b8160008083815260200190815260200160002060006101000a81548173ffffffffffffffffffffffffffffffffffffffff021916908373ffffffffffffffffffffffffffffffffffffffff16021790555050505056fea165627a7a72305820049f22360ad04e55b9c2e39f7e4187a9c624af472390b3b7073b2076b9f320b00029",
    "source": "pragma solidity >=0.4.22 <0.9.0;\r\n\r\ncontract Voting {\r\n    mapping(bytes32 => address) public voterWallets; // Use bytes32 instead of string\r\n\r\n    function registerVoter(string memory aadharId, address walletAddress) public {\r\n        bytes32 aadharHash = keccak256(abi.encodePacked(aadharId)); // Hash the Aadhar ID\r\n        require(voterWallets[aadharHash] == address(0), \"Voter already registered\");\r\n        \r\n        voterWallets[aadharHash] = walletAddress;\r\n    }\r\n\r\n    function getVoterWallet(string memory aadharId) public view returns (address) {\r\n        bytes32 aadharHash = keccak256(abi.encodePacked(aadharId));\r\n        return voterWallets[aadharHash];\r\n    }\r\n}\r\n",
    "sourcePath": "D:/MyWork/Blockchain-voting/contracts/Voting.sol",
    "compiler": {
        "name": "solc",
        "version": "0.5.0+commit.1d4f565a.Emscripten.clang"
    },
    "schemaVersion": "3.0.1",
    "updatedAt": "2025-03-16T05:05:38.989Z",
    "devdoc": {
        "methods": {}
    },
    "userdoc": {
        "methods": {}
    }
}